:060000000A128A11F32F21
:10000A0083120313A8008130280203180D280E2832
:10001A0037282A30A4002408F9002B30A500250827
:10002A00FA002930A6002608FB0028080A128A15B9
:10003A002D260A128A11831203132A08A400230800
:10004A0084002408831380002B08A400230A840058
:10005A00240880002908A4002308023E84002408FA
:10006A00800064282808003CA4002408A7002A303D
:10007A00A4002408F9002B30A5002508FA0029302D
:10008A00A6002608FB0027080A128A152D260A123E
:10009A008A11831203132A08A4002308840024085F
:1000AA00831380002B08A400230A840024088000FC
:1000BA002D30A4002308023E840024088000080092
:1000CA000A128A15A3230A128A110A128A159A2475
:1000DA000A128A110A128A15B9220A128A11903052
:1000EA000A128A15CB220A128A11AC300A128A1510
:1000FA00CB220A128A1100300A128A15CB220A125E
:10010A008A110A128A15B0220A128A1190300A122A
:10011A008A15CB220A128A11EE300A128A15CB22CC
:10012A000A128A110A128A15C2220A128A110A129C
:10013A008A15B9220A128A1121300A128A15CB228B
:10014A000A128A1169300A128A153B230A128A1185
:10015A0083120313690886000A128A15C2220A1238
:10016A008A110A128A15B9220A128A1131300A1220
:10017A008A15CB220A128A1168300A128A153B2381
:10018A000A128A110A128A15C2220A128A110A123C
:10019A008A15B9220A128A119A300A128A15CB22B2
:1001AA000A128A1100300A128A15CB220A128A11FF
:1001BA000A128A15B0220A128A119B300A128A156B
:1001CA00CB220A128A1167300A128A153B230A12B5
:1001DA008A110A128A15C2220A128A113C30831223
:1001EA000313A300A030A200A530A1002730A0006D
:1001FA006908D600D701D801D9015908F30058086F
:10020A00F2005708F1005608F00001300A128A1568
:10021A0046270A128A11730883120313A700720869
:10022A00A6007108A5007008A4000A128A11922477
:10023A000A128A11831203132308DD002208DC0044
:10024A002108DB002008DA005D08C8005C08C70046
:10025A005B08C6005A08C5006430D6005608C900B3
:10026A000A128A15AA260A128A1161308312031306
:10027A00D6005608A30068080A128A15EF230A1244
:10028A008A115E3083120313D6005608A30067084A
:10029A000A128A1105200A128A11F301F30A01309F
:1002AA000A128A155C230A128A1101300A128A1567
:1002BA001C230A128A11F301F30A02300A128A1560
:1002CA005C230A128A11831203136408303E0A124D
:1002DA008A15E3220A128A112E300A128A15E3229B
:1002EA000A128A11831203136508303E0A128A150C
:1002FA00E3220A128A11831203136608303E0A1295
:10030A008A15E3220A128A1156300A128A15E32242
:10031A000A128A11073083120313D6005608F30013
:10032A0002300A128A155C230A128A1183120313F5
:10033A006308303E0A128A15E3220A128A118312CE
:10034A0003136208303E0A128A15E3220A128A113E
:10035A00831203136108303E0A128A15E3220A1235
:10036A008A110C3083120313D6005608F3000230A8
:10037A000A128A155C230A128A1181308312031326
:10038A0067020318C929CA29D2296008303E0A120D
:10039A008A15E3220A128A11D82960080A128A15D4
:1003AA00E3220A128A11831203135F08303E0A12EB
:1003BA008A15E3220A128A11831203135E08303E59
:1003CA000A128A15E3220A128A11DF300A128A15E2
:1003DA00E3220A128A1143300A128A15E3220A1208
:1003EA008A119C280A128A110028730880398312FC
:1003FA000313A0002008F8007308A0002007A1003A
:10040A002108FA00F21F0A2A0B2A0C2A7A147A08FF
:10041A000319102A112A212A7A0A031D152A162AD3
:10042A001E2A0030F3000030F2000030F1000030E4
:10043A00F000F217F301292A0030F3000030F2002D
:10044A000030F1000030F00077088039A000200861
:10045A00F900790878060319332A342A352A7817D5
:10046A007708A0002007A1002108F900F61F3E2AFC
:10047A003F2A402A791479080319442A452A552A19
:10048A00790A031D492A4A2A522A0030F700003005
:10049A00F6000030F5000030F400F617F7015D2A87
:1004AA000030F7000030F6000030F5000030F400AC
:1004BA007A0879020318622A632AA72A781F662A09
:1004CA00672A6B2A8030A0002008F8067A08A00064
:1004DA002008FB007908A0002008FA007B08A00089
:1004EA002008F9007008A0002008FB007408A0008A
:1004FA002008F0007B08A0002008F4007108A00082
:10050A002008FB007508A0002008F1007B08A00065
:10051A002008F5007208A0002008FB007608A00059
:10052A002008F2007B08A0002008F6007308A0004B
:10053A002008FB007708A0002008F3007B08A00031
:10054A002008F700FB017908A000A1012108A300F7
:10055A007A082002A200031CA3032308803AFF00A2
:10056A0080307F02031DBB2A1A302202031CBE2AD6
:10057A00BF2A002B7308720471047004031DC62A73
:10058A00C82A0130C92A003083120313A0002008A8
:10059A00FB000030F3000030F2000030F1000030C0
:1005AA00F0007908A0002008FA00062B7B1CDE2A3E
:1005BA00DF2AEA2A7B0883120313A0000310200C07
:1005CA000138A1002108FB00EC2A0310FB0C701C67
:1005DA00EF2AF02AF12AFB17013083120313A00035
:1005EA00730DF30CF20CF10CF00CA00BF52A013090
:1005FA00A0002008FA0779087A02031C052B062BAB
:10060A00DB2A781B092B0A2B592B7A08031D0E2B80
:10061A000F2B182B0030F3000030F2000030F100ED
:10062A000030F000912C7408F007750803110318C4
:10063A00013E0319212BF107760803110318013E25
:10064A000319282BF207770803110318013E03192F
:10065A002F2BF307731C322B332B112C7B1C362BBD
:10066A00372B422B7B0883120313A0000310200CA4
:10067A000138A1002108FB00442B0310FB0C701C5D
:10068A00472B482B492BFB17013083120313A00079
:10069A00730DF30CF20CF10CF00CA00B4D2B013086
:1006AA00A0002008FA07112C7308803AFF00770887
:1006BA00803A7F02031D6B2B76087202031D6B2B97
:1006CA0075087102031D6B2B7408700203186E2BD8
:1006DA006F2BC92BFF3083120313A000FF30A10038
:1006EA00FF30A200FF30A3007408A4007508A5001B
:1006FA007608A6007708A7007008A4027108031CF0
:10070A00710F882B892BA5027208031C720F8E2B7E
:10071A008F2BA6027308031C730F942B952BA70229
:10072A002408A00725080318250F9C2B9D2BA10739
:10073A0026080318260FA22BA32BA20727080318A3
:10074A00270AA3072308F3002208F2002108F10070
:10075A002008F0008030A0002008F806FB09FB0AF8
:10076A007B08031DB92BBA2BD72B0130F0070030B9
:10077A0003180130F107003003180130F207003086
:10078A0003180130F307D72B7408F0027508031C0D
:10079A00750FF1027608031C760FF2027708031C24
:1007AA00770FF3027308720471047004031DDE2BC1
:1007BA00DF2B0D2C7B08031DE32BE42B0D2C0030C3
:1007CA00F3000030F2000030F1000030F000912C0C
:1007DA00013083120313A0000310F00DF10DF20D86
:1007EA00F30DA00BF12BFB1FFB2BFC2BFD2B701425
:1007FA007B1C002C012C042C0314FB0D062C03106B
:10080A00FB0D7A0803190A2C0B2C0D2C0130FA0265
:10081A00F21F102C112CED2BF901FB1F152C162C95
:10082A00242C7B087F3903191B2C1C2C1F2CF90143
:10083A00F90A242C701C222C232C242C1C2C790819
:10084A000319282C292C5F2C0130F00700300318DB
:10085A000130F107003003180130F20700300318A5
:10086A000130F307731C3A2C3B2C5F2C700883125F
:10087A000313A0007108A1007208A2007308A30064
:10088A000130A400230DA30CA20CA10CA00CA40BF4
:10089A00472C2308F3002208F2002108F10020085F
:1008AA00F0007A0A03195A2C5B2C5F2C0130A00045
:1008BA002008FA077A0A0319632C642C692C7A082F
:1008CA00031D682C692C772C0030F3000030F200ED
:1008DA000030F1000030F0007A08031D752C762CE8
:1008EA00772CF8017A1C7A2C7B2C7D2CF217832C1E
:1008FA007F3083120313A0002008F2057A088312BE
:10090A000313A0000310200CA1002108F300F81F14
:10091A008F2C902C912CF3170800831203132308B1
:10092A008039A8002808AD002308A8002807A900D4
:10093A002908B300A21FA22CA32CA42C3314330819
:10094A000319A82CA92CB82C330A031DAD2CAE2CE4
:10095A00B62C0030A3000030A2000030A100003005
:10096A00A000A217C02C0030A3000030A200003063
:10097A00A1000030A00027088039A8002808AD0689
:10098A002708A8002807A9002908B200A61FCE2C0C
:10099A00CF2CD02C321432080319D42CD52CE42CA9
:1009AA00320A031DD92CDA2CE22C0030A7000030C1
:1009BA00A6000030A5000030A400A617EC2C0030D9
:1009CA00A7000030A6000030A5000030A4003208BD
:1009DA000319F02CF12CF62C3308031DF52CF62CF8
:1009EA00FF2C0030A3000030A2000030A10000302C
:1009FA00A000F22F2008A8002808F00026080A12F2
:100A0A008A15C8230A128A11710883120313B900BE
:100A1A007008B8003808A800A901AA01AB012B0880
:100A2A00B1002A08B0002908AF002808AE0039082A
:100A3A00A800A901AA01AB012B08B7002A08B60031
:100A4A002908B5002808B4002108A8002808F000E1
:100A5A0025080A128A15C8230A128A1171088312F4
:100A6A000313B9007008B8003808A800A901AA0140
:100A7A00AB012808AE07290803110318013E031920
:100A8A00472DAF072A0803110318013E03194E2DFB
:100A9A00B0072B0803110318013E0319552DB1079E
:100AAA003908A800A901AA01AB012808B407290836
:100ABA0003110318013E0319632DB5072A08031110
:100ACA000318013E03196A2DB6072B0803110318F0
:100ADA00013E0319712DB7072208A8002808F00063
:100AEA0024080A128A15C8230A128A117108831265
:100AFA000313B9007008B8003808A800A901AA01B0
:100B0A00AB012808AE07290803110318013E03198F
:100B1A008F2DAF072A0803110318013E0319962DDA
:100B2A00B0072B0803110318013E03199D2DB107C5
:100B3A003908A800A901AA01AB012808B4072908A5
:100B4A0003110318013E0319AB2DB5072A08031137
:100B5A000318013E0319B22DB6072B080311031817
:100B6A00013E0319B92DB7070830A8000310AE0DCE
:100B7A00AF0DB00DB10DA80BBB2D2108A800280898
:100B8A00F00024080A128A15C8230A128A11710869
:100B9A0083120313B9007008B8003808A80039088E
:100BAA00A900AA01AB012808AE07290803110318F6
:100BBA00013E0319E12DAF072A0803110318013E6C
:100BCA000319E82DB0072B0803110318013E031976
:100BDA00EF2DB1072008A8002808F00025080A12FE
:100BEA008A15C8230A128A11710883120313B900DD
:100BFA007008B8003808A8003908A900AA01AB0192
:100C0A002808AE07290803110318013E03190E2EFE
:100C1A00AF072A0803110318013E0319152EB0075E
:100C2A002B0803110318013E03191C2EB1070830C3
:100C3A00A8000310AE0DAF0DB00DB10DA80B1E2EFE
:100C4A002008A8002808F00024080A128A15C823D8
:100C5A000A128A11710883120313B9007008B800C6
:100C6A003808A8003908A900AA01AB012808AE076C
:100C7A00290803110318013E0319442EAF072A0855
:100C8A0003110318013E03194B2EB0072B08031159
:100C9A000318013E0319522EB1072108A80028089B
:100CAA00F00026080A128A15C8230A128A11710846
:100CBA0083120313B9007008B8003808A80039086D
:100CCA00A900AA01AB012808B407290803110318CF
:100CDA00013E0319712EB5072A0803110318013EB4
:100CEA000319782EB6072B0803110318013E0319BE
:100CFA007F2EB7072208A8002808F00025080A1244
:100D0A008A15C8230A128A11710883120313B900BB
:100D1A007008B8003808A8003908A900AA01AB0170
:100D2A002808B407290803110318013E03199E2E47
:100D3A00B5072A0803110318013E0319A52EB607A1
:100D4A002B0803110318013E0319AC2EB70722081A
:100D5A00A8002808F00026080A128A15C8230A12D1
:100D6A008A11710883120313B9007008B800380891
:100D7A00A8003908A900AA01AB0108300310A80D80
:100D8A00A90DAA0DAB0DFF3E031DC32E2808B407FB
:100D9A00290803110318013E0319D42EB5072A089E
:100DAA0003110318013E0319DB2EB6072B080311A2
:100DBA000318013E0319E22EB7072E08A8002F08D0
:100DCA00A9003008AA003108AB0018300310AB0C98
:100DDA00AA0CA90CA80CFF3E031DEB2E2808B40789
:100DEA00290803110318013E0319FC2EB5072A0826
:100DFA0003110318013E0319032FB6072B08031129
:100E0A000318013E03190A2FB7070830A800031078
:100E1A00AE0DAF0DB00DB10DA80B0C2F3308320774
:100E2A00A800A901A90D2808823EB80029080318BC
:100E3A00013EFF3EB9003E2F0130A8000310B40D59
:100E4A00B50DB60DB70DA80B232FB11F2D2F2E2FC1
:100E5A002F2F34140130A8000310AE0DAF0DB00DC2
:100E6A00B10DA80B312FFF30B8070318B90AFF30AC
:100E7A00B907B61F412F422F212FB201B11F462FAA
:100E8A00472F632FFF302E05A800FF302F05A9003A
:100E9A00FF303005AA007F303105AB002B082A0449
:100EAA002904280403195A2F5B2F5E2FB201B20AB4
:100EBA00632F341C612F622F632F5B2F32080319B3
:100ECA00672F682F992F0130B407003003180130BB
:100EDA00B507003003180130B60700300318013097
:100EEA00B707371C792F7A2F992F3408A8003508AD
:100EFA00A9003608AA003708AB000130AC002B0D58
:100F0A00AB0CAA0CA90CA80CAC0B842F2B08B700AD
:100F1A002A08B6002908B5002808B4000130B80725
:100F2A000318B90A0030B9073908803AFF0080303F
:100F3A007F02031DA22FFF303802031CA52FA62F04
:100F4A00B12F7F3083120313B7008030B600003010
:100F5A00B5000030B400E62F831203133908803A33
:100F6A00FF0080307F02031DBC2F013038020318B6
:100F7A00BF2FC02FCC2F003083120313B7000030CD
:100F8A00B6000030B5000030B400AD01E62F831280
:100F9A0003133808A8002808B300FF30B405FF304F
:100FAA00B5057F30B6050030B705331CDD2FDE2FBF
:100FBA00DF2FB6173308A8000310280CA900290848
:100FCA00B7002D08A8002808B7043708A300360878
:100FDA00A2003508A1003408A000080083135A3083
:100FEA0084006A300A128A15A8220A128A11830119
:100FFA000A128A11652808308A000408840A8207BE
:10100A000034533431343A342034203420345334C5
:10101A0032343A34203420342034533433343A349A
:02102A00003490
:1015500064008001840A0406031900340406A92AE1
:101560000A128A15D6220A128A15831603139114B9
:1015700008000A128A15D6220A128A158316031346
:10158000111408000A128A15D6220A128A15831627
:10159000031311150800F0000A128A15D6220A1248
:1015A0008A1570088312031393000800831603132F
:1015B0001419DB2ADC2AD62A11081F39031DE12A57
:1015C000E22AD62A0800F1008312031309147108D5
:1015D000880089141A30F000F00BEC2A0000831206
:1015E000031389100800F200831203130910720814
:1015F000880089140B30F1006230F000F00BFE2AF5
:10160000F10BFE2A00008312031389100800F30077
:10161000F201731C0C2B0D2B112B7008F1007108BB
:10162000F2070310F00D0310F30C7308031D192BC0
:101630001A2B092B72080800F3002E2B7308840064
:101640000A128A1500200A128A150A128A15E32244
:101650000A128A150130F2007208F3077308840039
:101660000A128A1500200A128A15003A031D392B26
:101670003A2B1E2B0800F1000A128A15D6220A12F4
:101680008A158316031391150A128A15D6220A1297
:101690008A15831203131308F00071088400700880
:1016A000831380000A128A15D6220A128A1583161D
:1016B0000313911611160800F5007503031D612B25
:1016C000622B6D2B73087F3EF4007408F6007608D9
:1016D0000A128A15F3220A128A1502307506031DB2
:1016E000722B732B7E2B7308BF3EF4007408F60038
:1016F00076080A128A15F3220A128A150800803029
:1017000083120313AB062F08F3002E08F2002D08F6
:10171000F1002C08F0002B08F7002A08F600290831
:10172000F5002808F4000A128A11FA210A128A1513
:10173000730883120313AB007208AA007108A90092
:101740007008A80008008316031788018901831612
:101750000313850186018801890183120313850122
:101760008601880189017030831603138F040F14DA
:10177000003083120313A3000130A2008630A100C1
:10178000A030A0000A128A151B240A128A1508002C
:10179000F800F401F5017008F200F3017208F60098
:1017A0007308F700781CD52BD62BDC2B7608F407B2
:1017B0000318F50A7708F50701300310F60DF70D49
:1017C000FF3E031DDD2B0310F80C7808031DE92BE9
:1017D000EA2BD22B7508F1007408F0000800831280
:1017E0000313A7002830A4002408F9002A30A5001C
:1017F0002508FA002930A6002608FB0027080A124F
:101800008A152D260A128A15831203132808A400AC
:10181000230884002408831380002A08A400230AD4
:101820008400240880002908A4002308023E8400C4
:1018300024088000080028308312031394008316C4
:101840000313910180309400831203132008A40035
:101850002108A5002208A6002308A70002300310D3
:10186000A40DA50DA60DA70DFF3E031D2F2C2708C7
:10187000F3002608F2002508F1002408F0000030EB
:10188000F7007A30F6001230F5000030F4000A124A
:101890008A15E4240A128A157008FF3E8316031382
:1018A000930087150716080083120313A000200871
:1018B000FB007B08A10079088400831380017A086B
:1018C000840080018C2C0A30F0000030F1002108E7
:1018D000FB00FC017B08F2007C08F3000A128A1569
:1018E0004A250A128A157008FD007A0884007D08CE
:1018F00083138000F630FB007B08F0007A08840038
:1019000000080A128A1507230A128A158312031384
:101910002107FC007C08A1000A3021020318912C49
:10192000922C632C2108FB00790884007B08831328
:101930008000080083120313091088018230F4002C
:10194000DD30F300F30BA22CF40BA22CA72C3030CB
:101950000A128A15F3220A128A150D30F400FB30A0
:10196000F300F30BB12CF40BB12CB62C30300A126F
:101970008A15F3220A128A150D30F400FB30F300A9
:10198000F30BC02CF40BC02CC52C30300A128A1576
:10199000F3220A128A1538300A128A15F3220A1223
:1019A0008A1506300A128A15F3220A128A150C309B
:1019B0000A128A15F3220A128A1501300A128A15B0
:1019C000F3220A128A1508000030FC000030FB00E8
:1019D0000030FA000030F9007308720471047004DA
:1019E0000319F32CF42C412DFD01FD0A042D0130C7
:1019F000F8000310F00DF10DF20DF30DF80BF92CBA
:101A00000130F8007808FD07F31F072D082DF72C8B
:101A10000130F8000310F90DFA0DFB0DFC0DF80B69
:101A20000A2D73087702031D1F2D72087602031D0D
:101A30001F2D71087502031D1F2D70087402031CF1
:101A4000222D232D322D7008F4027108031C710F12
:101A5000F5027208031C720FF6027308031C730F61
:101A6000F702791401300310F30CF20CF10CF00CB6
:101A7000FF3E031D332D0130FD02031D402D412D7E
:101A8000082D7C08F3007B08F2007A08F100790841
:101A9000F0000800F601F11F4E2D4F2D562DF009D4
:101AA000F109F00A0319F10AF601F60AF31F592D9C
:101AB0005A2D632DF209F309F20A0319F30A0130D2
:101AC000F4007408F606F701F801700871040319B0
:101AD0006A2D6B2DA22DF501F50A792D0130031029
:101AE000F00DF10DFF3E031D6F2D0130F400740861
:101AF000F507F11F7C2D7D2D6E2D01300310F70DA4
:101B0000F80DFF3E031D7E2D71087302031D8A2D03
:101B100070087202031C8D2D8E2D952D7008F20217
:101B20007108031CF303F302771401300310F10C66
:101B3000F00CFF3E031D962D0130F502031DA12D73
:101B4000A22D7D2D76080319A62DA72DAC2DF70902
:101B5000F809F70A0319F80A7808F1007708F00085
:101B600008000310831203133C0D3D0DBE003E0818
:101B7000C4004408031DBD2DBE2DC72D0030BD007F
:101B80000030BC000030BB000030BA002C2E3A08F8
:101B9000BE003B08BF003C08C0003D08C1001F302C
:101BA0000310C10CC00CBF0CBE0CFF3E031DD02D9A
:101BB0003E08C2004208C300BC17FF30BA05FF3020
:101BC000BB05FF30BC050030BD059630C402C41F04
:101BD000EA2DEB2D052E4408803A973E0318F12D8F
:101BE000F22DF32DBE2D01300310BD0CBC0CBB0C2F
:101BF000BA0CFF3E031DF42D0130BE003E08C407A1
:101C0000031D032E042EF32D1C2E20304402031C32
:101C10000A2E0B2E172EBE2D0130BE000310BA0D5A
:101C2000BB0DBC0DBD0DBE0B0E2E0130C402440811
:101C3000031D1B2E1C2E0C2E43080319202E212EB3
:101C40002C2EBA09BB09BC09BD09BA0A0319BB0A83
:101C50000319BC0A0319BD0A0800FC007C088312A2
:101C60000313A0002008FD0079088400831380017D
:101C70007A08840080017B08840080016A2E643029
:101C8000F0000030F1007D08A000A1012008F20062
:101C90002108F3000A128A154A250A128A157008CB
:101CA00083120313A2007B088400220883138000A0
:101CB0009C30A0002008F0007B08840000080A1275
:101CC0008A1507230A128A157D0783120313A100C0
:101CD0002108FD0064307D0203186F2E702E3F2E08
:101CE0009C2E0A30F0000030F1007D08A000A10118
:101CF0002008F2002108F3000A128A154A250A1268
:101D00008A15700883120313A2007A08840022083F
:101D100083138000F630A0002008F0007A088400C9
:101D200000080A128A1507230A128A157D078312F2
:101D30000313A1002108FD000A307D020318A12E23
:101D4000A22E712E7D08A00079088400200883133C
:101D500080000800831203134808BD004708BC0038
:101D60004608BB004508BA000A128A15B1250A12B6
:101D70008A15831203133A08CA004A08D30053088D
:101D8000CA004A08D6005308CA00CB01CC01CD01D5
:101D90004D08F3004C08F2004B08F1004A08F0002F
:101DA00000300A128A1546270A128A157308831210
:101DB0000313AB007208AA007108A9007008A800FC
:101DC0004808AF004708AE004608AD004508AC0023
:101DD0000A128A157F230A128A15831203132B080D
:101DE000D1002A08D0002908CF002808CE005108C9
:101DF000A7005008A6004F08A5004E08A4004230D6
:101E0000A300C830A2000030A1000030A0000A12D8
:101E10008A1192240A128A15831203132308BD0023
:101E20002208BC002108BB002008BA000A128A154B
:101E3000B1250A128A15831203133A08CA004A0808
:101E4000D2005430CA004A08F9005530CB004B0884
:101E5000FA0052080A128A1554240A128A158312AB
:101E600003135308CA00490884004A0883138000FA
:101E70005508CA00490A84004A0880005408CA006C
:101E80004908023E84004A0880000800F8007808EB
:101E900003194B2F4C2F602FF31F4F2F502F602F04
:101EA0007009FA007109FB007209FC007309FD005A
:101EB000FA0A0319FB0A0319FC0A0319FD0A682F21
:101EC0007308FD007208FC007108FB007008FA003E
:101ED0007308720471047004031D6F2F702F792F23
:101EE0000030F3000030F2000030F1000030F0006C
:101EF000FF2F9630F4007408F9008B2F0130F400A6
:101F00007408F90701300310FD0CFC0CFB0CFA0CF3
:101F1000FF3E031D832FFE307D05031D902F912F63
:101F20007E2FAD2F0130F4007408F9070130FA0755
:101F3000003003180130FB07003003180130FC07A4
:101F4000003003180130FD0701300310FD0CFC0CBC
:101F5000FB0CFA0CFF3E031DA52FFF307D05031D72
:101F6000B22FB32F922FBF2F0130F9020130F400AE
:101F70000310FA0DFB0DFC0DFD0DF40BB82FFC1B2F
:101F8000C22FC32FC92F023079020318C82FC92FBF
:101F9000B42F7918CC2FCD2FD52FFF30FA05FF3075
:101FA000FB057F30FC05FF30FD050310F90C7908B7
:101FB000F400F501F601F70118300310F40DF50DEA
:101FC000F60DF70DFF3E031DDD2F7408FA047508AA
:101FD000FB047608FC047708FD0478080319F12F48
:101FE000F22FF72FF31FF52FF62FF72FFD177D0890
:101FF000F3007C08F2007B08F1007A08F00008008A
:04400E00D420FF3F7C
:00000001FF
