:060000000A128A110C280F
:10000800FE00030EF1000A08F2000A128A111528F0
:100018000A128A110F28F601F70183010A128A11C0
:10002800EE28831203138C1D1A281B286D2814121E
:10003800141B1F2820282428941F232824282B2811
:100048001308F0007008F60014139413141683169E
:100058000313941A302831284928141934283528CC
:100068004928831203131308F0007008F6008C1156
:10007800141683160313141C422843283D28A6305F
:10008800F000F00B452800006A28941A4C284D28E7
:100098006A28141D502851286A288312031313084C
:1000A800F0007008F6008316031314107708831203
:1000B800031393001416A630F000F00B612800001B
:1000C80083160313141869286A28642883120313F3
:1000D8008C110C1F7028712878281E08F0007008F1
:1000E800F700770895000C1372088A00710E8300D8
:1000F800FE0E7E0E09000130831603178800890161
:1001080001308316031385008601083087008801B3
:1001180089018312031385018601870188018901FA
:100128007030831603138F040F149F131F129F122E
:10013800831203131F083F3980389F00C3309F057F
:100148001F142130F400F40BA728831203139F1403
:10015800FA308316031392003F3083120313970576
:100168001708F0390C3897000F309500CF309705F5
:100178008C109214121412158C1CC328C428C02881
:100188008C108B170B17831603130C17831203138A
:100198000C1370300A128A11D4200A128A1108002E
:1001A800F300730883160313930036308312031386
:1001B8009400803083160313940001309100871552
:1001C80007168B170B17831203138C11831603134F
:1001D8008C1508000A128A117F200A128A118312CC
:1001E80003139F149F18F928FA28F6282130F500E0
:1001F800F50BFC28831203139F14F6280A128A11A0
:020208000C28C0
:04400E00C420FF3F8C
:00000001FF
