:060000000A128A110C280F
:10000800FE00030EF1000A08F2000A128A111928EC
:100018000A128A110F28F801F90183120313A601A5
:10002800A70183010A128A117828831203138C1DF1
:100038001E281F2871281412141B23282428282856
:10004800941F272828282F281308F0007008F80084
:1000580014139413141683160313941A342835288A
:100068004D281419382839284D28831203131308EA
:10007800F0007008F8008C11141683160313141C72
:10008800462847284128A630F000F00B49280000F0
:100098006E28941A502851286E28141D5428552863
:1000A8006E28831203131308F0007008F8008316F3
:1000B8000313141079088312031393001416A6303F
:1000C800F000F00B652800008316031314186D2840
:1000D8006E286828831203138C1172088A00710E27
:1000E8008300FE0E7E0E09000A128A1112210A12DE
:1000F8008A11831203138E018F01831203130611D1
:100108000A128A1156210A128A110A128A116421C6
:100118000A128A11831203130F08A7000E08A600FB
:100128003A30F3000030F4002708F6002608F500FE
:100138000A128A11CC200A128A1173088312031337
:10014800A3002308F90021307902031CAC28AD284C
:1001580081280310061D03140318B328B728831237
:1001680003130615BA2883120313061106308312E7
:100178000313A5001330A400AD30A300A30BC228BD
:10018800A40BC228A50BC22881280A128A110C28A0
:1001980083120313A101A201730874040319D5285B
:1001A800D6280D29A001A00AE42801300310F30D78
:1001B800F40DFF3E031DDA280130F7007708A00789
:1001C800F41FE728E828D92801300310A10DA20D53
:1001D800FF3E031DE92874087602031DF5287308FD
:1001E8007502031CF828F92800297308F502740819
:1001F800031CF603F602211401300310F40CF30C6F
:10020800FF3E031D01290130A002031D0C290D2901
:10021800E8282208F4002108F300080083160317D1
:10022800890188018316031385010230860008308E
:1002380087008801890183120313850186018701DC
:10024800880189017030831603138F040F148312F9
:100258000313101390101008CF39103890008B1723
:100268000B1780300A128A113C210A128A110800E1
:10027800F3007308831603139300363083120313B5
:100288009400803083160313940001309100871581
:1002980007168B170B17831203138C11831603137E
:1002A8008C1508008312031306140930F300F30BAE
:1002B8005B295E298312031306108E018F01080043
:1002C80083120313861C69296A2964291014861865
:0A02D8006E296F296B291010080031
:04400E00C420FF3F8C
:00000001FF
