:060000000A128A110C280F
:10000800FE00030EF2000A08F3000A128A111628ED
:100018000A128A110F28F701F801F90183010A125F
:100028008A110829831203130C1F1B281C28372840
:1000380003101F1D031403182228262883120313F4
:100048001F152928831203131F110C131F192D289C
:100058002E2833281E08F1007108F90037281E08D9
:10006800F1007108F8000B1D3A283B2841289F1819
:100078003E283F2840289F140B118C1D44284528F2
:1000880069280A128A1120210A128A11F1007108BE
:10009800F70031307706031D522853285A2879086B
:1000A8000A128A112A210A128A1166283230770622
:1000B800031D5F286028662878080A128A112A21F9
:1000C8000A128A11831203138C1173088A00720EA4
:1000D8008300FE0E7E0E090083120313A000740C29
:1000E80083160313031C9F1303189F171F129F12D5
:1000F80095283F30831203139F05A9288312031301
:100108001F083F3940389F00A928831203131F088E
:100118003F3980389F00A928C030831203139F04F9
:10012800A9280F0E0739F500F6017608003A0319D9
:100138009E2890287508043A03197D28023A031965
:100148008228013A0319892890282008F500F50D1E
:10015800F50D1F087506C33975069F009F101F14FB
:1001680008000330831603178800890183160313D8
:1001780005148514860188018901831203138501FA
:1001880086018701880189017030831603138F0463
:100198000F1481128111011581140110F40100302E
:1001A8000A128A1170200A128A11831603130C1777
:1001B800831203130C138B170B178B160B11831653
:1001C80003138C15831203138C1108008312031375
:1001D800A00083160313871283120313201DF5282A
:1001E800F628FC287608831603139400871502293D
:1001F800740876048316031394008711831203137B
:1002080020087504940008000A128A11B5200A1201
:100218008A11F401F501F60124300A128A11EA2044
:100228000A128A1179088312031386007808880055
:1002380016290A128A110C2883160313141C25295F
:10024800262920298312031313080800F0007008D8
:08025800831203139300080058
:04400E00D420FF3F7C
:00000001FF
