:060000000A128A110C280F
:10000800FE00030EF2000A08F3000A128A111528EE
:100018000A128A110F28F501F60183010A128A11C2
:10002800DE280B1C182819283C2883120313061CE9
:100038001E281F282B280F307502031C242825286A
:100048002728F5012B280130F0007008F507861CD9
:100058002E282F283B287508031D332834283928D3
:100068000F30F0007008F5003B280130F5020B1046
:10007800831203138C1D412842289F281412141B35
:10008800462847284B28941F4A284B2852281308EB
:10009800F0007008F6001413941314168316031353
:1000A8001419572858287728941A5B285C28772829
:1000B800831203131308F0007008F6001416831651
:1000C8000313141C68286928632883120313130870
:1000D80086000330F1009730F000F00B7128F10B27
:1000E800712876289C28141D7A287B289C28941A25
:1000F8007E287F289C28831203131308F0007008B9
:10010800F600831603131410750883120313930063
:1001180014160330F1009730F000F00B9128F10B22
:10012800912896288316031314189B289C28962830
:10013800831203138C1173088A00720E8300FE0E5B
:100148007E0E09008316031788018901831603139D
:100158008501033086008801831203138501860117
:1001680088017030831603138F040F148B170B1735
:100178000B108B15831203138C11831603138C1524
:100188001614961430300A128A11CD200A128A11D8
:100198000800F400740883160313930026308312B2
:1001A800031394008316031391018030940087157C
:1001B800071608000A128A11A6200A128A11750861
:0E01C800831203138800E3280A128A110C2800
:04400E00D420FF3F7C
:00000001FF
