:060000000A128A110C280F
:10000800FE00030EF1000A08F2000A128A112128E4
:100018000A128A110F280A128A11DA200A128A1182
:10002800F6000A128A11DB200A128A11F700F4017D
:10003800F50183010A128A11D128831203138C1D3A
:10004800262827288D281412141B2B282C28302802
:10005800941F2F28302837281308F0007008F40060
:1000680014139413141683160313941A3C283D286A
:100078005B281419402841285B28831203131308AE
:10008800F0007008F4008C11141683160313141C66
:100098004E284F284928831203131308F0007008CC
:1000A800F500A630F000F00B572800008A28941AB3
:1000B8005E285F288A28141D622863288A288312EC
:1000C80003131308F0007008F400831603131410C8
:1000D8007508031D70287128752877088312031383
:1000E80093007503031D79287A287D2876088312E2
:1000F800930083121416A630F000F00B812800003C
:1001080083160313141889288A2884288312031352
:100118008C1172088A00710E8300FE0E7E0E090093
:1001280001308316031788008901013083160313F1
:10013800850086010830870088018901831203132E
:1001480085018601870188018901703083160313B0
:100158008F040F148B170B1760300A128A11B720FF
:100168000A128A110800F300730883160313930018
:1001780036308312031394008030831603139400DF
:1001880001309100871507168B170B17831203137D
:100198008C11831603138C1508000A128A119420F7
:1001A8000A128A11D6280A128A110C2814340A3421
:04400E00D420FF3F7C
:00000001FF
