:060000000A128A110C280F
:10000800FE00030EF0000A08F1000A128A155F2F9D
:100018000A128A110F280A128A11FF270A128A1156
:10002800D300CC01CD01CE01CF01D001D101D20145
:1000380083010A128A1120280A128A11B4270A1287
:100048008A110A128A111C260A128A110A128A15A2
:100058008F270A128A11F601F60A01300A128A114C
:1000680079260A128A1101300A128A15DB270A1228
:100078008A110A128A1566270A128A116030F2005C
:100088000030F3000A128A1578270A128A11003004
:10009800F200F3000A128A1578270A128A110A1246
:1000A8008A156F270A128A11033083120313CB00B3
:1000B8000830CA007630C900C90B6028CA0B60280E
:1000C800CB0B602800000A128A1566270A128A11CB
:1000D8006130F2000030F3000A128A1578270A12FC
:1000E8008A110030F200F3000A128A1186270A12D8
:1000F8008A11720883120313C9004908D2000A1230
:100108008A156F270A128A11033083120313CB0052
:100118000830CA007630C900C90B9028CA0B90284D
:10012800CB0B90280000831203135208C900CA01A0
:100138004908FA004A08FB000A128A1140250A12E7
:100148008A11F601F60A02300A128A1179260A1271
:100158008A11831203134F080A128A1115270A12EB
:100168008A118312031350080A128A1115270A12DA
:100178008A1112300A128A15DB270A128A110A120A
:100188008A1566270A128A116030F2000030F300DF
:100198000A128A1578270A128A110130F2000030F3
:1001A800F3000A128A1578270A128A110A128A1588
:1001B8006F270A128A11033083120313CB00083009
:1001C800CA007630C900C90BE728CA0BE728CB0B51
:1001D800E72800000A128A1566270A128A11613078
:1001E800F2000030F3000A128A1578270A128A11E1
:1001F8000030F200F3000A128A1186270A128A11C7
:10020800720883120313C9004908D1000A128A151B
:100218006F270A128A11033083120313CB000830A8
:10022800CA007630C900C90B1729CA0B1729CB0B8E
:1002380017290000831203135108C900CA0149088D
:10024800FA004A08FB000A128A1140250A128A118C
:10025800831203134F080A128A1115270A128A11EA
:100268008312031350080A128A1115270A128A11D9
:1002780012300A128A15DB270A128A110A128A1505
:1002880066270A128A117130F2000030F3000A1250
:100298008A1578270A128A110030F200F3000A1230
:1002A8008A1186270A128A11730883120313CD0054
:1002B8007208CC000A128A156F270A128A110330B5
:1002C80083120313CB000830CA007630C900C90B6B
:1002D8006B29CA0B6B29CB0B6B2900008312031304
:1002E8004C08F2004D08F300F401F50100300A1241
:1002F8008A1108240A128A11750883120313AD00A3
:100308007408AC007308AB007208AA004030A9005A
:100318002430A8007A30A700E130A6000A128A111A
:100328002B220A128A11831203132908C3002808F2
:10033800C2002708C1002608C0000A128A11C42476
:100348000A128A11831203134108CD004008CC0019
:100358004D08FB004C08FA000A128A1140250A12BF
:100368008A11831203134F080A128A1115270A12D9
:100378008A118312031350080A128A1115270A12C8
:100388008A1115300A128A15DB270A128A111330CE
:100398000A128A15DB270A128A110A128A15662799
:1003A8000A128A118130F2000030F3000A128A150D
:1003B80078270A128A110030F200F3000A128A1113
:1003C80086270A128A11720883120313C900490882
:1003D800D3000A128A156F270A128A110330831272
:1003E8000313CB000830CA007630C900C90BFA29BC
:1003F800CA0BFA29CB0BFA290000831203135308FE
:10040800C900CA014908FA004A08FB000A128A1101
:1004180040250A128A11831203134E080A128A1100
:1004280015270A128A11831203134F080A128A1118
:1004380015270A128A118312031350080A128A1107
:1004480015270A128A113D280A128A110C288312CC
:1004580003132D088039AE002E08B7002D08AE0012
:100468002E07AF002F08BE00AC1F3B2A3C2A3D2AAE
:100478003E143E080319412A422A522A3E0A031D05
:10048800462A472A4F2A0030AD000030AC00003021
:10049800AB000030AA00AC17AD015A2A0030AD00FD
:1004A8000030AC000030AB000030AA0029088039C9
:1004B800AE002E08B7062908AE002E07AF002F0899
:1004C800BF00A81F682A692A6A2A3F143F0803192F
:1004D8006E2A6F2A7F2A3F0A031D732A742A7C2AF0
:1004E8000030A9000030A8000030A7000030A600A6
:1004F800A817A901872A0030A9000030A8000030F9
:10050800A7000030A6002908280427042604031D94
:100518008E2A8F2AA82A0030AD000030AC000030A7
:10052800AB000030AA008030AC047F30AD0437083F
:10053800AE002E08AD042D08A9002C08A8002B0831
:10054800A7002A08A600072C3E08031DAC2AAD2ADE
:10055800B62A0030A9000030A8000030A7000030FB
:10056800A600072C3E08AE00AF012F08B1003F08D7
:100578002E02B000031CB10330087F3EB8003108DA
:100588000318013E003EB9002D08B6002C08B5003E
:100598002B08B4002A08B3000030AD000030AC00CE
:1005A8000030AB000030AA000030BD000030BC00B5
:1005B8000030BB000030BA00BF012C2B3F080319E4
:1005C800E62AE72A072B0130AE000310B30DB40D5D
:1005D800B50DB60DAE0BE92A0130AE000310AA0D19
:1005E800AB0DAC0DAD0DAE0BF22ABD1FFC2AFD2ADA
:1005F800FE2A2A140130AE000310BA0DBB0DBC0D43
:10060800BD0DAE0B002B29083602031D152B28083B
:100618003502031D152B27083402031D152B260848
:100628003302031C182B192B282B3D172608B3025D
:100638002708031C270FB4022808031C280FB5023B
:100648002908031C290FB6020130AE002E08BF0787
:100658001A303F02031C312B322BE22A36083504AC
:10066800340433040319392B3A2B592B3A14592BD8
:100678000130AE000310AA0DAB0DAC0DAD0DAE0BE5
:100688003E2BBD1F482B492B4A2B2A140130AE00A4
:100698000310BA0DBB0DBC0DBD0DAE0B4C2BFF30BE
:1006A800B8070318B90AFF30B907AC1F5C2B5D2BDC
:1006B8003C2BBF01BD1F612B622B7E2BFF303A05FF
:1006C800AE00FF303B05AF00FF303C05B0007F3087
:1006D8003D05B100310830042F042E040319752B91
:1006E800762B792BBF01BF0A7E2B2A1C7C2B7D2BF6
:1006F8007E2B762B3F080319822B832BB42B0130DA
:10070800AA07003003180130AB0700300318013086
:10071800AC07003003180130AD072D1C942B952B26
:10072800B42B2A08AE002B08AF002C08B0002D0807
:10073800B1000130B200310DB10CB00CAF0CAE0CF1
:10074800B20B9F2B3108AD003008AC002F08AB006E
:100758002E08AA000130B8070318B90A0030B907F3
:100768003908803AFF0080307F02031DBD2BFF301F
:100778003802031CC02BC12BCF2BFF30831203136D
:10078800B8000030B9000030AD000030AC000030D7
:10079800AB000030AA00831203133908803AFF0027
:1007A80080307F02031DDA2B013038020318DD2B5D
:1007B800DE2BEB2B83120313B801B9010030AD0017
:1007C8000030AC000030AB000030AA00B701831243
:1007D80003133808AE002E08BE003E1CF42BF52B80
:1007E800F72BAC17FB2B7F30AE002E08AC053E086C
:1007F800AE0003102E0CAF002F08AD003708AE0076
:100808002E08AD049F2A080083120313A0002008B5
:1008180003190F2C102C242CF51F132C142C242C0A
:100828007209A2007309A3007409A4007509A50040
:10083800A20A0319A30A0319A40A0319A50A2C2C4E
:100848007508A5007408A4007308A3007208A20024
:100858007508740473047204031D332C342C3D2C66
:100868000030F5000030F4000030F3000030F200F2
:10087800C32C9630F6007608A1004F2C0130F60004
:100888007608A10701300310A50CA40CA30CA20C38
:10089800FF3E031D472CFE302505031D542C552C07
:1008A800422C712C0130F6007608A1070130A2070E
:1008B800003003180130A307003003180130A407E3
:1008C800003003180130A50701300310A50CA40C53
:1008D800A30CA20CFF3E031D692CFF302505031D48
:1008E800762C772C562C832C0130A1020130F6008F
:1008F8000310A20DA30DA40DA50DF60B7C2CA41BB3
:10090800862C872C8D2C0230210203188C2C8D2CE0
:10091800782C2118902C912C992CFF30A205FF30AF
:10092800A3057F30A405FF30A5050310A10C2108FD
:10093800F600F701F801F90118300310F60DF70D6C
:10094800F80DF90DFF3E031DA12C7608A2047708C7
:10095800A3047808A4047908A50420080319B52C71
:10096800B62CBB2CF51FB92CBA2CBB2CA517250807
:10097800F5002408F4002308F3002208F200080018
:10098800031083120313420D430DC4004408FB00F7
:100998007B08031DD02CD12CDA2C0030C30000308A
:1009A800C2000030C1000030C0003F2D4008C40024
:1009B8004108C5004208C6004308C7001F3003109D
:1009C800C70CC60CC50CC40CFF3E031DE32C440821
:1009D800C8004808FA00C217FF30C005FF30C1053B
:1009E800FF30C2050030C3059630FB02FB1FFD2C0B
:1009F800FE2C182D7B08803A973E0318042D052DF0
:100A0800062DD12C01300310C30CC20CC10CC00C34
:100A1800FF3E031D072D0130C4004408FB07031DDA
:100A2800162D172D062D2F2D20307B02031C1D2D72
:100A38001E2D2A2DD12C0130C4000310C00DC10D6C
:100A4800C20DC30DC40B212D0130FB027B08031D11
:100A58002E2D2F2D1F2D7A080319332D342D3F2DC0
:100A6800C009C109C209C309C00A0319C10A031987
:100A7800C20A0319C30A08007B0883120313A300E0
:100A88007A08A2006430F2000030F3002308F50071
:100A98002208F4000A128A11D1260A128A11720851
:100AA80083120313A0002008CE004E08A000A10165
:100AB8002008F2002108F3009C30F400FF30F50014
:100AC8000A128A15B6270A128A11831203132208FA
:100AD8007207A20023080318230A7307A3000A3029
:100AE800F2000030F3002308F5002208F4000A128F
:100AF8008A11D1260A128A11720883120313A000E0
:100B08002008CF004F08A000A1012008F20021080A
:100B1800F300F630F400FF30F5000A128A15B62704
:100B28000A128A118312031322087207A2002308EB
:100B38000318230A7307A3002208A0002008D00086
:100B48005008303EA0002008D0004F08303EA000DA
:100B58002008CF004E08303EA0002008CE00080034
:100B6800003083120313A3000030A2000030A1005C
:100B78000030A00075087404730472040319C52DAD
:100B8800C62D132EA401A40AD62D0130FA00031095
:100B9800F20DF30DF40DF50DFA0BCB2D0130FA0023
:100BA8007A08A407F51FD92DDA2DC92D0130FA00CE
:100BB8000310A00DA10DA20DA30DFA0BDC2D7508D5
:100BC8007902031DF12D74087802031DF12D7308B5
:100BD8007702031DF12D72087602031CF42DF52D02
:100BE800042E7208F6027308031C730FF7027408C8
:100BF800031C740FF8027508031C750FF902201402
:100C080001300310F50CF40CF30CF20CFF3E031D3D
:100C1800052E0130A402031D122E132EDA2D2308EF
:100C2800F5002208F4002108F3002008F20008006B
:100C380000300A128A11DD270A128A113430F700AF
:100C4800F130F600F60B262EF70B262E2B2E03304E
:100C58000A128A159C270A128A110D30F700FB30F8
:100C6800F600F60B352EF70B352E3A2E03300A1206
:100C78008A159C270A128A111D30F7009130F60058
:100C8800F60B442EF70B442E03300A128A159C27C4
:100C98000A128A1102300A128A159C270A128A112E
:100CA80002300A128A159C270A128A1108300A1281
:100CB8008A159C270A128A1100300A128A159C2765
:100CC8000A128A110C300A128A159C270A128A11F4
:100CD80000300A128A159C270A128A1106300A1255
:100CE8008A159C270A128A11080083120313A00090
:100CF8002003031D802E812EA62E76087F3EF70046
:100D08007708A3002308F70004300310F70CFF3E10
:100D1800031D892E7708F8007808A10023080F39E9
:100D2800F7007708A20021080A128A159C270A12E0
:100D38008A118312031322080A128A159C270A12A1
:100D48008A11D02E02302006031DAB2EAC2ED02ED9
:100D58007608BF3EF7007708A3002308F7000430A1
:100D68000310F70CFF3E031DB42E7708F80078082F
:100D7800A10023080F39F7007708A20021080A12FA
:100D88008A159C270A128A118312031322080A1251
:100D98008A159C270A128A110800F701F8017208BF
:100DA80073040319D82ED92E102FF901F90AE72E4A
:100DB80001300310F20DF30DFF3E031DDD2E01304F
:100DC800F6007608F907F31FEA2EEB2EDC2E013029
:100DD8000310F70DF80DFF3E031DEC2E7308750286
:100DE800031DF82E72087402031CFB2EFC2E032F21
:100DF8007208F4027308031CF503F5027714013036
:100E08000310F30CF20CFF3E031D042F0130F9020E
:100E1800031D0F2F102FEB2E7808F3007708F20030
:100E28000800F60076080F39F3007308F400760816
:100E3800F039F3007308F5008312031308157508D9
:100E4800F30004300310F30CFF3E031D262F730834
:100E58000A128A11DD270A128A11831203138815D0
:100E68001A30F300F30B362F000083120313881196
:100E780074080A128A11DD270A128A1183120313D1
:100E880088151A30F300F30B472F00008312031361
:100E98008811080028308312031394008316031363
:100EA8009101831203132508A9002608AA00270820
:100EB800AB002808AC0002300310A90DAA0DAB0D39
:100EC800AC0DFF3E031D602F2C08F5002B08F40025
:100ED8002A08F3002908F2000030F9007A30F800F7
:100EE8001230F7000030F6000A128A11B4250A12EF
:100EF8008A117208FF3E8316031393009401871525
:100F0800071608000A128A1582270A128A11831600
:100F1800031391150A128A1582270A128A1183125D
:100F280003131308F400F5017408F6007508F700B8
:100F38000A128A1582270A128A1172037304031D82
:100F4800A62FA72FAB2F831603139112AE2F83164C
:100F58000313911611167708F3007608F2000800BB
:100F680083160317890188018316031385018601F7
:100F7800870188018901831203138501860187018E
:100F8800880189017030831603138F040F14003011
:100F980083120313A8000130A7008630A600A030F2
:100FA800A5000A128A114E270A128A118B170B13F1
:100FB8000800F200721CE12FE22FE62F83120313C0
:100FC8000816E92F831203130812F21CEC2FED2FD9
:100FD800EF2F8816F02F8812721DF32FF42FF62F9B
:100FE8000817F72F0813F21DFA2FFB2FFD2F88176C
:100FF800FE2F88130800053408308A000408840A84
:1010080082070034433443343A3420345334703440
:101018003A3420344C347A343A34203454346E34EC
:101028006B343A340034203420340034253400340E
:101EBE0071088A00700E8300FE0E7E0E09000A1253
:101ECE008A1582270A128A15831603131114080025
:101EDE000A128A1582270A128A1583160313111500
:101EEE0008000A128A1582270A128A1572088312AE
:101EFE00031393000800831603131419872F882FDA
:101F0E00822F11081F39031D8D2F8E2F822F08004F
:101F1E0000300A128A159C270A128A1501300A12FD
:101F2E008A159C270A128A150800F50083120313DE
:101F3E00081175080A128A11DD270A128A158312F2
:101F4E00031388150B30F4006230F300F30BAD2F42
:101F5E00F40BAD2F00008312031388110800F60155
:101F6E00F701721CBB2FBC2FC22F7408F607031883
:101F7E00F70A7508F70701300310F40DF50DFF3E53
:101F8E00031DC32F01300310F30CF20CFF3E031D93
:101F9E00CA2F72087304031DD52FD62FB82F7708BA
:101FAE00F3007608F2000800F900F701F801F22FAD
:101FBE007708790784000A128A1500200A128A15FA
:101FCE000A128A1115270A128A150130F70703180B
:101FDE00F80A0030F8077708790784000A128A1584
:101FEE0000200A128A15003A031DFE2FFF2FDF2F45
:021FFE000800D9
:04400E00C420FF3F8C
:00000001FF
