:060000000A128A110E280D
:10000800FE00030EF8000408F9000A08FA000A12B4
:100018008A110C290A128A11112883120313A601C6
:10002800A701A801A901AA0183010A128A117B2844
:1000380083120313A20040283F307A2806307A281A
:100048005B307A284F307A2866307A286D307A28E3
:100058007D307A2807307A287F307A2867307A28E6
:1000680077307A287C307A2839307A285E307A28B6
:1000780079307A2871307A282208A000A101210855
:10008800003A0319482820282008003A0319202894
:10009800013A03192228033A03192428013A0319BB
:1000A8002628073A03192828013A03192A28033A67
:1000B80003192C28013A03192E280F3A031930285E
:1000C800013A03193228033A03193428013A03196B
:1000D8003628073A03193828013A03193A28033A07
:1000E80003193C28013A03193E28202808000A125F
:1000F8008A1169210A128A118312031328088700BA
:100108001E082802031889288A288C2889148D2813
:100118008910260803199128922880280130A40004
:100128002408A70702302702031C9B289C28B8280C
:10013800A701B82888012A080A128A111C200A1265
:100148008A1183120313850001308800C8288801AA
:1001580029080A128A111C200A128A118312031311
:10016800850002308800C8282708A400A5012508B2
:10017800003A0319C028C8282408003A03199E2801
:10018800013A0319AB28C828A60180280A128A1147
:100198000E2883120313A300200C83160313031CD9
:1001A8009F1303189F171F129F12EA283F309F05BD
:1001B80000291F083F3940389F0000291F083F3990
:1001C80080389F000029C0309F0400290F0E07398E
:1001D80083120313A100A2012208003A0319F5288B
:1001E800E7282108043A0319DA28023A0319DD2816
:1001F800013A0319E228E7282308A100A10DA10D5F
:100208001F082106C33921069F009F101F140800EC
:100218000B1C0F29102921298312031306181529ED
:1002280016291A290130F6007608A80786181D290C
:100238001E2920290130A8020B100B1D242925296D
:100248003F292A30F6007608F0002930F7007708B1
:10025800F100831203131E080A128A1148210A1298
:100268008A11831203139F183A293B293C299F14AA
:10027800A601A60A0B117A088A0079088400780E6C
:100288008300FE0E7E0E0900F4007408F200720866
:10029800F50074080F39F20071088400720883139E
:1002A80080007508F20004300310F20CFF3E031DB5
:1002B80058297208F3007308F50075080F39F20021
:1002C800700884007208800008000A128A118321CD
:1002D8000A128A110A128A11B7210A128A110A12FD
:1002E8008A119D210A128A110A128A11A7210A125B
:1002F8008A110A128A11B0210A128A1108001030D4
:1003080083160317880089018316031385010330B8
:100318008600870188010130890083120313850153
:100328008601870188018901FF308316031396002F
:10033800080083120313A00105300A128A11CD2088
:100348000A128A11080083160313811281110115FC
:10035800811401100B1108008B170B178B150B104C
:100368000B118B1608007030831603138F040F14BB
:0203780008007B
:04400E00D420FF3F7C
:00000001FF
