:060000000A128A110C280F
:10000800FE00030EF2000A08F3000A128A111528EE
:100018000A128A110F28F801F90183010A128A11BC
:10002800FE28831203130C1F1A281B2820281E08D9
:10003800F0007008F8000C138C1D23282428812850
:100048001412141B282829282D28941F2C282D2801
:1000580034281308F0007008F900141394131416C8
:1000680083160313141939283A285928941A3D2855
:100078003E285928831203131308F0007008F9006A
:10008800141683160313141C4A284B284528831278
:100098000313130886000330F1009730F000F00BCB
:1000A8005328F10B532858287E28141D5C285D28F6
:1000B8007E28941A602861287E2883120313130867
:1000C800F0007008F90083160313141078088312DF
:1000D8000313930014160330F1009730F000F00B6F
:1000E8007328F10B732878288316031314187D28B6
:1000F8007E287828831203138C1173088A00720EE5
:100108008300FE0E7E0E0900F700740C831603139D
:10011800031C9F1303189F171F129F12AB283F3011
:10012800831203139F05BF28831203131F083F3947
:1001380040389F00BF28831203131F083F398038B7
:100148009F00BF28C030831203139F04BF280F0EDF
:100158000739F500F6017608003A0319B428A628ED
:100168007508043A03199328023A03199828013AA2
:1001780003199F28A6287708F500F50DF50D1F0827
:100188007506C33975069F009F101F1408000130BB
:10019800831603178800890101308316031385002D
:1001A800860188018901831203138501860188016C
:1001B80089017030831603138F040F14F401003083
:1001C8000A128A1188200A128A11831603130C173F
:1001D800831203130C138B170B17831603138C1539
:1001E800831203138C1120300A128A1119210A1262
:1001F8008A1108000A128A11CB200A128A11831266
:1002080003139F18082909290A299F141A308312F1
:100218000313A100F730A000A00B1029A10B10298F
:10022800152903290A128A110C28F4007408831668
:1002380003139300263083120313940083160313C9
:0C02480091018030940087150716080013
:04400E00D420FF3F7C
:00000001FF
