:060000000A128A110C280F
:10000800FE00030EF1000A08F2000A128A15FA2C03
:100018000A128A110F28F801F901FA018312031351
:10002800E201E301E401E501E601E701E801E90194
:10003800EA01EB01EC0183010A128A11142E8312E2
:1000480003132D088039B2003208B7002D08B2001A
:100058003207B3003308BD00AC1F332834283528D5
:100068003D143D08031939283A2849283D0A031D3B
:100078003E283F2847280030AD000030AC00003053
:10008800AB000030AA00AC1751280030AD0000309A
:10009800AC000030AB000030AA0031088039B20053
:1000A8003208B7063108B2003207B3003308BC0083
:1000B800B01F5F28602861283C143C080319652894
:1000C800662875283C0A031D6A286B2873280030A7
:1000D800B1000030B0000030AF000030AE00B01703
:1000E8007D280030B1000030B0000030AF00003093
:1000F800AE003C0803198128822887283D08031D83
:100108008628872890280030AD000030AC000030E9
:10011800AB000030AA00832B2A08B2003208F30093
:1001280030080A128A11D0270A128A117408831219
:100138000313C3007308C2004208B200B301B4013C
:10014800B5013508BB003408BA003308B9003208D5
:10015800B8004308B200B301B401B5013508C100C5
:100168003408C0003308BF003208BE002B08B200B4
:100178003208F3002F080A128A11D0270A128A11AE
:10018800740883120313C3007308C2004208B20044
:10019800B301B401B5013208B807330803110318D5
:1001A800013E0319D828B907340803110318013E82
:1001B8000319DF28BA07350803110318013E03198C
:1001C800E628BB074308B200B301B401B501320801
:1001D800BE07330803110318013E0319F428BF07AB
:1001E800340803110318013E0319FB28C00735081A
:1001F80003110318013E03190229C1072C08B20094
:100208003208F3002E080A128A11D0270A128A111E
:10021800740883120313C3007308C2004208B200B3
:10022800B301B401B5013208B80733080311031844
:10023800013E03192029B907340803110318013EA8
:1002480003192729BA07350803110318013E0319B2
:100258002E29BB074308B200B301B401B501320827
:10026800BE07330803110318013E03193C29BF07D1
:10027800340803110318013E03194329C007350840
:1002880003110318013E03194A29C1070830B200B7
:100298000310B80DB90DBA0DBB0DB20B4C292B08C4
:1002A800B2003208F3002E080A128A11D0270A1267
:1002B8008A11740883120313C3007308C20042082A
:1002C800B2004308B300B401B5013208B8073308D7
:1002D80003110318013E03197229B90734080311E1
:1002E8000318013E03197929BA07350803110318C1
:1002F800013E03198029BB072A08B2003208F3001F
:100308002F080A128A11D0270A128A117408831238
:100318000313C3007308C2004208B2004308B300C5
:10032800B401B5013208B807330803110318013EB8
:1003380003199F29B907340803110318013E03194B
:10034800A629BA07350803110318013E0319AD2978
:10035800BB070830B2000310B80DB90DBA0DBB0DBC
:10036800B20BAF292A08B2003208F3002E080A128D
:100378008A11D0270A128A11740883120313C30042
:100388007308C2004208B2004308B300B401B501C3
:100398003208B807330803110318013E0319D52999
:1003A800B907340803110318013E0319DC29BA07F9
:1003B800350803110318013E0319E329BB072B086D
:1003C800B2003208F30030080A128A11D0270A1244
:1003D8008A11740883120313C3007308C200420809
:1003E800B2004308B300B401B5013208BE073308B0
:1003F80003110318013E0319022ABF073408031129
:100408000318013E0319092AC00735080311031808
:10041800013E0319102AC1072C08B2003208F30064
:100428002F080A128A11D0270A128A117408831217
:100438000313C3007308C2004208B2004308B300A4
:10044800B401B5013208BE07330803110318013E91
:1004580003192F2ABF07340803110318013E031993
:10046800362AC007350803110318013E03193D2A2F
:10047800C1072C08B2003208F30030080A128A11AA
:10048800D0270A128A11740883120313C300730851
:10049800C2004208B2004308B300B401B5010830F5
:1004A8000310B20DB30DB40DB50DFF3E031D542A54
:1004B8003208BE07330803110318013E0319652AE1
:1004C800BF07340803110318013E03196C2AC0073B
:1004D800350803110318013E0319732AC1073808A8
:1004E800B2003908B3003A08B4003B08B500183028
:1004F8000310B50CB40CB30CB20CFF3E031D7C2AE0
:100508003208BE07330803110318013E03198D2A68
:10051800BF07340803110318013E0319942AC007C2
:10052800350803110318013E03199B2AC107083037
:10053800B2000310B80DB90DBA0DBB0DB20B9D2A50
:100548003D083C07B200B301B30D3208823EC20039
:1005580033080318013EFF3EC300CF2A0130B20022
:100568000310BE0DBF0DC00DC10DB20BB42ABB1FC9
:10057800BE2ABF2AC02A3E140130B2000310B80DAB
:10058800B90DBA0DBB0DB20BC22AFF30C207031852
:10059800C30AFF30C307C01FD22AD32AB22ABC011C
:1005A800BB1FD72AD82AF42AFF303805B200FF30FB
:1005B8003905B300FF303A05B4007F303B05B5007C
:1005C80035083404330432040319EB2AEC2AEF2AE1
:1005D800BC01BC0AF42A3E1CF22AF32AF42AEC2AAB
:1005E8003C080319F82AF92A2A2B0130BE070030E3
:1005F80003180130BF07003003180130C00700306E
:1006080003180130C107411C0A2B0B2B2A2B3E086B
:10061800B2003F08B3004008B4004108B5000130FB
:10062800B600350DB50CB40CB30CB20CB60B152BCB
:100638003508C1003408C0003308BF003208BE00C6
:100648000130C2070318C30A0030C3074308803AC1
:10065800FF0080307F02031D332BFF304202031C52
:10066800362B372B422B7F3083120313C100803087
:10067800C0000030BF000030BE00772B8312031388
:100688004308803AFF0080307F02031D4D2B013064
:1006980042020318502B512B5D2B00308312031399
:1006A800C1000030C0000030BF000030BE00B701FC
:1006B800772B831203134208B2003208BD00FF30C3
:1006C800BE05FF30BF057F30C0050030C1053D1CA9
:1006D8006E2B6F2B702BC0173D08B2000310320C25
:1006E800B3003308C1003708B2003208C10441081A
:1006F800AD004008AC003F08AB003E08AA00080067
:100708008312031323088039A8002808F30023085C
:10071800A8002807A9002908F500A21F942B952BEB
:10072800962B7514750803199A2B9B2BAB2B750AFE
:10073800031D9F2BA02BA82B0030A3000030A20084
:100748000030A1000030A000A217A301B32B003095
:10075800A3000030A2000030A1000030A00027084C
:100768008039A8002808F400740873060319BD2B03
:10077800BE2BBF2B73172708A8002807A900290834
:10078800F400A61FC82BC92BCA2B741474080319AC
:10079800CE2BCF2BDF2B740A031DD32BD42BDC2BB2
:1007A8000030A7000030A6000030A5000030A400EB
:1007B800A617A701E72B0030A7000030A6000030DD
:1007C800A5000030A400750874020318EC2BED2B6B
:1007D800312C731FF02BF12BF52B8030A800280843
:1007E800F3067508A8002808F6007408A800280869
:1007F800F5007608A8002808F4002008A8002808B2
:10080800F6002408A8002808A0007608A8002808F0
:10081800A4002108A8002808F6002508A800280830
:10082800A1007608A8002808A5002208A800280822
:10083800F6002608A8002808A2007608A8002808BC
:10084800A6002308A8002808F6002708A8002808FA
:10085800A3007608A8002808A700F6017408A800D5
:10086800A9012908AB0075082802AA00031CAB03DC
:100878002B08803AFF0080307F02031D452C1A3078
:100888002A02031C482C492C8A2C831203132308A0
:10089800220421042004031D522C542C0130552C11
:1008A8000030A8002808F6000030A3000030A2009D
:1008B8000030A1000030A0007408A8002808F50046
:1008C800902C761C682C692C742C760883120313E0
:1008D800A8000310280C0138A9002908F600762C76
:1008E8000310F60C83120313201C7B2C7C2C7D2C0C
:1008F800F6170130A800230DA30CA20CA10CA00C24
:10090800A80B7F2C0130A8002808F5077408750289
:10091800031C8F2C902C652C731B932C942CE32C8C
:100928007508031D982C992CA42C003083120313EE
:10093800A3000030A2000030A1000030A000132E58
:10094800831203132408A007250803110318013E86
:100958000319AF2CA107260803110318013E031938
:10096800B62CA207270803110318013E0319BD2C52
:10097800A307231CC02CC12C992D761CC42CC52C74
:10098800CE2C7608A8000310280C0138A9002908E5
:10099800F600D02C0310F60C201CD32CD42CD52C0C
:1009A800F6170130A800230DA30CA20CA10CA00C73
:1009B800A80BD72C0130A8002808F507992D831219
:1009C80003132308803AFF002708803A7F02031D9B
:1009D800F72C26082202031DF72C25082102031DE7
:1009E800F72C240820020318FA2CFB2C532DFF3077
:1009F800A800FF30A900FF30AA00FF30AB00240890
:100A0800AC002508AD002608AE002708AF00200876
:100A1800AC022108031C210F122D132DAD02220850
:100A2800031C220F182D192DAE022308031C230FB7
:100A38001E2D1F2DAF022C08A8072D0803182D0FF7
:100A4800262D272DA9072E0803182E0F2C2D2D2D06
:100A5800AA072F0803182F0AAB072B08A3002A0898
:100A6800A2002908A1002808A0008030A8002808B2
:100A7800F306F609F60A7608031D432D442D612D69
:100A88000130A007003003180130A1070030031817
:100A98000130A207003003180130A307612D240894
:100AA800A0022508031C250FA1022608031C260FF7
:100AB800A2022708031C270FA302230822042104EB
:100AC8002004031D682D692D952D7608031D6D2DB5
:100AD8006E2D952D0030A3000030A2000030A1003B
:100AE8000030A000132E0130A8000310A00DA10DA6
:100AF800A20DA30DA80B792DF61F832D842D852D0E
:100B08002014761C882D892D8C2D0314F60D8E2D1E
:100B18000310F60D75080319922D932D952D0130AC
:100B2800F502A21F982D992D772DF401F61F9D2D02
:100B38009E2DAC2D76087F390319A32DA42DA72D42
:100B4800F401F40AAC2D201CAA2DAB2DAC2DA42D3C
:100B580074080319B02DB12DE52D0130A007003020
:100B680003180130A107003003180130A207003034
:100B780003180130A307231CC22DC32DE52D20081F
:100B8800A8002108A9002208AA002308AB00013008
:100B9800AC002B0DAB0CAA0CA90CA80CAC0BCD2DE2
:100BA8002B08A3002A08A2002908A1002808A000F1
:100BB800750A0319E02DE12DE52D0130A80028085C
:100BC800F507750A0319E92DEA2DEF2D7508031DA0
:100BD800EE2DEF2DFD2D0030A3000030A2000030D7
:100BE800A1000030A0007508031DFB2DFC2DFD2D74
:100BF800F301751C002E012E032EA217072E7F303D
:100C0800A8002808A2057508A8000310280CA90048
:100C18002908A300F31F112E122E132EA317080064
:100C28000A128A1532250A128A11F301F401F50114
:100C380020300A128A15E4240A128A118312031337
:100C4800071131300A128A11F9270A128A110A1279
:100C58008A15A7240A128A1183120313DE005E087C
:100C6800F9001A3083120313DF00F730DE00DE0BC1
:100C78003B2EDF0B3B2E402E32300A128A11F92709
:100C88000A128A110A128A15A7240A128A118312D3
:100C98000313DE005E08F8001A3083120313DF0026
:100CA800F730DE00DE0B562EDF0B562E5B2E83123E
:100CB800031307150D300A128A1513250A128A1113
:100CC8003C3083120313AD00A030AC00A530AB005C
:100CD8002730AA007908DE00DF01E001E1016108A0
:100CE800F6006008F5005F08F4005E08F3000130C4
:100CF8000A128A1114270A128A117608831203131A
:100D0800B1007508B0007408AF007308AE000A128D
:100D18008A1123200A128A11831203132D08E9006D
:100D28002C08E8002B08E7002A08E6006908D2002A
:100D38006808D1006708D0006608CF000A128A1533
:100D480057270A128A1115300A128A1513250A1212
:100D58008A113C3083120313AD00A030AC00A530DB
:100D6800AB002730AA007808DE00DF01E001E101CE
:100D78006108F6006008F5005F08F4005E08F300FB
:100D880001300A128A1114270A128A11760883126E
:100D98000313B1007508B0007408AF007308AE0003
:100DA8000A128A1123200A128A11831203132D08AA
:100DB800E5002C08E4002B08E3002A08E200650897
:100DC800D2006408D1006308D0006208CF000A127C
:100DD8008A1557270A128A1101300A128A15132513
:100DE8000A128A117A300A128A157A250A128A1189
:100DF8007A088312031386000D309900033083129A
:100E08000313E0008A30DF005530DE00DE0B0A2FC6
:100E1800DF0B0A2FE00B0A2F222E0A128A110C2848
:100E280083120313A400240803191B2F1C2F302F2F
:100E3800F61F1F2F202F302F7309A6007409A70053
:100E48007509A8007609A900A60A0319A70A0319B3
:100E5800A80A0319A90A382F7608A9007508A80056
:100E68007408A7007308A600760875047404730450
:100E7800031D3F2F402F492F0030F6000030F500AA
:100E88000030F4000030F300CF2F9630A000200887
:100E9800A5005B2F0130A0002008A5070130031032
:100EA800A90CA80CA70CA60CFF3E031D532FFE305F
:100EB8002905031D602F612F4E2F7D2F0130A000C3
:100EC8002008A5070130A607003003180130A7073E
:100ED800003003180130A807003003180130A907B3
:100EE80001300310A90CA80CA70CA60CFF3E031D8B
:100EF800752FFF302905031D822F832F622F8F2F17
:100F08000130A5020130A0000310A60DA70DA80D01
:100F1800A90DA00B882FA81B922F932F992F023071
:100F280025020318982F992F842F25189C2F9D2F61
:100F3800A52FFF30A605FF30A7057F30A805FF3095
:100F4800A9050310A50C2508A000A101A201A30171
:100F580018300310A00DA10DA20DA30DFF3E031D17
:100F6800AD2F2008A6042108A7042208A8042308F6
:100F7800A90424080319C12FC22FC72FF61FC52F94
:100F8800C62FC72FA9172908F6002808F500270833
:100F9800F4002608F300080083120313A400A0013C
:100FA800A1017308F500F6017508A2007608A300F0
:100FB800241CDF2FE02FE62F2208A0070318A10A20
:100FC8002308A10701300310A20DA30DFF3E031D46
:100FD800E72F0310A40C2408031DF32FF42FDC2F94
:100FE8002108F4002008F3000800F30073088312B6
:060FF80003139300080042
:1010000008308A000408840A8207003443346F34AD
:101010006E347434613464346F34723420343D344B
:101020002034003450346F347434313420343D343F
:101030002034003450346F347434323420343D342E
:101040002034003420342034203400342E34003452
:10194E0083160313141CAC2CAD2CA72C831203137B
:10195E0013080800F300730883120313990083160B
:10196E000313981CBB2CBC2CB62C08008316031337
:10197E00071387170C30990018119816831203134A
:10198E0018168316031318128312031398170800E0
:10199E00F600F501761CD42CD52CD92C7308F40046
:1019AE007408F5070310F30D0310F60C7608031DEB
:1019BE00E12CE22CD12C75080800F60083160313D7
:1019CE008712761DEB2CEC2CF02C750894008715E5
:1019DE00F42C73087504940087117608740483122E
:1019EE00031394000800831203138C1EFF2C002D8A
:1019FE000C2D1A0885008C121A080319072D082DB4
:101A0E000C2D1A08F0007008FA0072088A00710E88
:101A1E008300FE0E7E0E0900F500252D750884004C
:101A2E000A128A1500200A128A150A128A15B12482
:101A3E000A128A150130F4007408F507750884003F
:101A4E000A128A1500200A128A15003A031D302D3B
:101A5E00312D152D08008316031788018901831671
:101A6E000313850186010711071387178801890162
:101A7E008312031385018601870188018901703065
:101A8E00831603138F040F140A128A15BD240A122B
:101A9E008A158B170B17831603138C1608008030CC
:101AAE0083120313B3063708A3003608A2003508C5
:101ABE00A1003408A0003308A7003208A6003108A0
:101ACE00A5003008A4000A128A1184230A128A156E
:101ADE00831203132308B3002208B2002108B100B9
:101AEE002008B000080083120313AF003030AC00A2
:101AFE002C08A4003230AD002D08A5003130AE0008
:101B0E002E08A6002F08840000080A128A15DA266D
:101B1E000A128A15831203133108303E0A128A15EF
:101B2E00B1240A128A15831203133208303E0A12A8
:101B3E008A15B1240A128A15831203133008303E17
:101B4E000A128A15B1240A128A1508008312031389
:101B5E00A9002908A6002608AA00240884008313D9
:101B6E008001250884008001E72D0A30F300003043
:101B7E00F4002A08A600A7012608F5002708F6009B
:101B8E000A128A15F5250A128A1573088312031391
:101B9E00A80025088400280883138000F630A600CC
:101BAE002608F3002508840000080A128A15CF249F
:101BBE000A128A15831203132A07A7002708AA0000
:101BCE000A302A020318EC2DED2DBC2D2A08A60092
:101BDE002408840026088313800008008312031350
:101BEE00A101F41FFB2DFC2D032EF309F409F30ABA
:101BFE000319F40AA101A10AF61F062E072E102EB4
:101C0E00F509F609F50A0319F60A0130F700770807
:101C1E00A106A201A301730874040319172E182E2E
:101C2E004F2EA001A00A262E01300310F30DF40D45
:101C3E00FF3E031D1C2E0130F7007708A007F41F8E
:101C4E00292E2A2E1B2E01300310A20DA30DFF3EAE
:101C5E00031D2B2E74087602031D372E7308750292
:101C6E00031C3A2E3B2E422E7308F5027408031CF9
:101C7E00F603F602221401300310F40CF30CFF3EAF
:101C8E00031D432E0130A002031D4E2E4F2E2A2E71
:101C9E0021080319532E542E592EA209A309A20A64
:101CAE000319A30A2308F4002208F3000800031006
:101CBE0083120313460D470DC8004808CE004E0888
:101CCE00031D6A2E6B2E742E0030C7000030C60026
:101CDE000030C5000030C400D92E4408C8004508A5
:101CEE00C9004608CA004708CB001F300310CB0CB2
:101CFE00CA0CC90CC80CFF3E031D7D2E4808CC0033
:101D0E004C08CD00C617FF30C405FF30C505FF30A7
:101D1E00C6050030C7059630CE02CE1F972E982EE0
:101D2E00B22E4E08803A973E03189E2E9F2EA02E5E
:101D3E006B2E01300310C70CC60CC50CC40CFF3E35
:101D4E00031DA12E0130C8004808CE07031DB02E7A
:101D5E00B12EA02EC92E20304E02031CB72EB82E47
:101D6E00C42E6B2E0130C8000310C40DC50DC60D58
:101D7E00C70DC80BBB2E0130CE024E08031DC82E58
:101D8E00C92EB92E4D080319CD2ECE2ED92EC4092B
:101D9E00C509C609C709C40A0319C50A0319C60A23
:101DAE000319C70A080083120313AA002A08A70002
:101DBE002708AB00240884008313800125088400C3
:101DCE008001260884008001172F6430F300003054
:101DDE00F4002B08A700A8012708F5002808F60034
:101DEE000A128A15F5250A128A157308831203132F
:101DFE00A900260884002908831380009C30A700C0
:101E0E002708F3002608840000080A128A15CF243A
:101E1E000A128A15831203132B07A8002808AB0099
:101E2E0064302B0203181C2F1D2FEC2E492F0A3065
:101E3E00F3000030F4002B08A700A8012708F500D6
:101E4E002808F6000A128A15F5250A128A15730853
:101E5E0083120313A9002508840029088313800028
:101E6E00F630A7002708F3002508840000080A12A0
:101E7E008A15CF240A128A15831203132B07A80082
:101E8E002808AB000A302B0203184E2F4F2F1E2F9F
:101E9E002B08A7002408840027088313800008005D
:101EAE00831203135208C7005108C6005008C5001C
:101EBE004F08C4000A128A155E260A128A1583126A
:101ECE0003134408D3005308DC005C08D300D4018C
:101EDE00D501D6015608F6005508F5005408F40051
:101EEE005308F30000300A128A1114270A128A15B9
:101EFE00760883120313B3007508B2007408B1009C
:101F0E007308B0005208B7005108B6005008B5006B
:101F1E004F08B4000A128A1556250A128A15831222
:101F2E0003133308DA003208D9003108D80030081C
:101F3E00D7005A08B1005908B0005808AF0057082A
:101F4E00AE004230AD00C830AC000030AB00003007
:101F5E00AA000A128A1123200A128A158312031369
:101F6E002D08C7002C08C6002B08C5002A08C4007F
:101F7E000A128A155E260A128A1583120313440862
:101F8E00D3005308DB005D30D3005308A4005E304D
:101F9E00D4005408A5005B080A128A15AD250A1252
:101FAE008A15831203135C08303E0A128A15B12477
:101FBE000A128A1521300A128A1513250A128A1559
:101FCE00831203135E08303E0A128A15B1240A12D8
:101FDE008A15831203135D08303E0A128A15B12446
:101FEE000A128A151D300A128A1513250A128A152D
:021FFE000800D9
:04400E00D420FF3F7C
:00000001FF
